:020000040800F2
:100000000000022019030008210300082303000850
:10001000250300082703000829030008000000004A
:100020000000000000000000000000002B0300089A
:100030002D030008000000002F0300083103000812
:1000400033030008330300083303000833030008B8
:1000500033030008330300083303000833030008A8
:100060003303000833030008330300083303000898
:100070003303000833030008330300083303000888
:10008000330300083303000833030008C92A0008BB
:10009000A92A000833030008B92A0008330300081E
:1000A0003303000833030008330300083303000858
:1000B0003303000833030008330300083303000848
:1000C0003303000833030008330300083303000838
:1000D0003303000833030008330300083303000828
:1000E0003303000833030008330300083303000818
:1000F0003303000833030008330300083303000808
:1001000033030008330300083303000833030008F7
:1001100033030008330300083303000833030008E7
:1001200033030008330300083303000833030008D7
:10013000330300080000000000000000F92A000856
:10014000D92A000833030008E92A0008330300080D
:1001500033030008330300083303000833030008A7
:100160003303000833030008330300083303000897
:1001700033030008330300083303000800000000C5
:100180000000000033030008000000000000000031
:1001900033030008000000000000000033030008E3
:1001A0000000000000000000000000003303000811
:1001B0003303000833030008330300083303000847
:1001C0003303000800F002F800F098F80AA090E865
:1001D000000C82448344AAF10107DA4501D100F002
:1001E0008DF8AFF2090EBAE80F0013F0010F18BF37
:1001F000FB1A43F0010318476CA600008CA6000010
:10020000103A24BF78C878C1FAD8520724BF30C842
:1002100030C144BF04680C60704700000023002414
:1002200000250026103A28BF78C1FBD8520728BF06
:1002300030C148BF0B6070476E2900F07E85702981
:1002400000F07D81662909F00185652909F0FE84A9
:10025000672909F0FB84612909F0FA8403681B0A05
:1002600028BF41F08001692900F0EE80642900F088
:10027000EB80752900F0E8806F2901F076807829FD
:1002800000F04981E92901F01180E42901F00E8094
:10029000F52901F00B80EF2901F07380F82900F0B7
:1002A00048810368DB0928BF41F08001632901F020
:1002B0006786732901F06C86E32901F07786F329BC
:1002C00001F07C86002070471FB509F0BAFC9DE85C
:1002D000030000F041FC01F027FC04000020002195
:1002E00009F036FB401C60600020002109F01AFB79
:1002F000E06001F075FB00F0EFFB1FBD06F082FC33
:10030000114603B406F0D8FC03BCFFF7DDFF02F092
:10031000B7FB07F029FC0000064880470648004765
:10032000FEE7FEE7FEE7FEE7FEE7FEE7FEE7FEE7A5
:10033000FEE7FEE76D460008C5010008004870476B
:100340002C10002070B5064600F0EAFB056806F1A7
:100350000B0020F00704B4429CBF002070BD2B4668
:100360006A68BAB11068A04210D304F1080188424B
:100370003CBF5068586007D351681019416011683C
:10038000091B016058601460101D70BD134652684F
:10039000002AE7D12146284600F0CAFB0028DED11A
:1003A00070BD70B50446051F00F0BAFB0068002C54
:1003B00014BF446870BD002C18BFAC423CBF20463F
:1003C0006468F8D301680A18AA4218BF456003D1CF
:1003D0002A6805461144016028684119A1421CBFE2
:1003E0006C6070BD6168696021680844286070BDF8
:1003F0007CB51D4616460C00009001D02044401EDE
:10040000074B7B442A4669460190304600F0BDFE0A
:1004100005461CB10020694600F0CAFE28467CBD96
:10042000B50D00000B460146184600F0CFBE000097
:100430000FB4044910B503AA029800F0C7FE10BC1F
:100440005DF814FB841000202DE9F04106460024DD
:1004500010687529314616A510D000F0DAFB002887
:1004600002DA404213A507E031688A0701D512A5D8
:1004700002E0490704D511A5012401E000F0D2FBF8
:1004800000210A2206F1240709E0B0FBF2FCB0FBD0
:10049000F2F302FB1C00303078541846491C002847
:1004A000F3D123462A463046BDE8F04100F0ECBBCC
:1004B000000000002D0000002B00000020000000C4
:1004C000F0B40D460188090502D5214C7C4402E0B8
:1004D0001F4C7C440E34002100F1240608E002F099
:1004E0000F071209E75D42EA03721B097754491CA2
:1004F00052EA0307F3D102780023120704D5702DC6
:1005000006D009B1022311342246F0BC00F0BCBB76
:1005100001231034F8E770B504460D4621461068F3
:1005200000F080FB024629462046BDE870400023CB
:10053000C6E7D21D22F00703D3E90023C0E7036812
:10054000126843F0200303600823C3610023B7E768
:10055000E89F00002DE9F05F894604464FF0000A4D
:10056000DFF874B1FB44C0F820A02046E16888475A
:10057000002874D0252806D0D4E901219047206AAC
:10058000401C2062F1E700265F462046E16888476C
:100590002028054607DB312D05D2781910F8200CEC
:1005A00008B10643F1E7B00701D526F00406C4F808
:1005B0001CA00027C4F818A02A2D09D0284606F050
:1005C0005FFB38B304EB8708303DC8F8185019E0DA
:1005D00059F8041B204604EB87029161E1688847C3
:1005E000012F054618D1E069002820DA26F0200600
:1005F0001DE0D8F8180000EB800005EB4000303813
:10060000C8F818002046E1688847054606F038FB20
:100610000028EED1012F0AD02E2D08D12046E16806
:1006200088477F1C0546022F46F02006C4DBA069E0
:10063000002803DA404246F00106A061F00701D02D
:1006400026F010066C2D0BD0682D09D04C2D39D01A
:100650006A2D35D0742D35D07A2D33D016E038E0A0
:10066000E1682F4620468847B842054609D16C2FDD
:1006700026D04FF48060E16806432046884705464F
:1006800004E06C2F1AD04FF4807006430DB3A5F12F
:100690004100192802D8203546F400664A4629460A
:1006A000204626604E46FFF7C7FD80B101280BD0DB
:1006B000F61D26F0070000F1080956E74020E4E7A0
:1006C0008020D8E70020D6E706F104094DE7284648
:1006D00052E7206ABDE8F09F789F000070B504469D
:1006E000C068810713D0800601D5A56A04E0A1691E
:1006F000606808442169451A204601F02DF900225E
:1007000006462946204601F053F8304670BD0020C9
:1007100070BD70B510B1BDE87040DFE70025074C33
:100720006E1E07E02046FFF7D9FF00B13546206D69
:1007300020F00104002CF5D1284670BD30100020B7
:100740002DE9F0410C4607461646104600F078F8B1
:100750002078611C61280AD0722802D077283CD109
:1007600002E00125002405E00225042402E008241B
:1007700048F2020511F8010B2B2806D0622809D097
:1007800011F8010C74280AD00BE045F0030544F081
:100790000204EFE745F0040544F00104EAE744F001
:1007A00010043846214606F001FB411C15D00021FB
:1007B000316171604FF40071F560F1617061200783
:1007C00004D530460222002100F0F2FF306D40F0E7
:1007D000010030653046BDE8F0810020FBE72DE9DF
:1007E000F0410D460646104C206DC10704D041086B
:1007F00004D020F00104F7E722460EE05420FFF772
:10080000A1FD07000ED0206D47F0010108435421DF
:100810002065384600F0F8F83A4629463046BDE8EB
:10082000F0418DE70020D6E73010002011B14FF4E1
:10083000807201E04FF480624FF4007301F034B82D
:100840002DE9F04704464FF000094FF0FF37C56827
:10085000D4E90486A80707D0204601F07DF8304689
:1008600006F030FA002802DA3846BDE8F08728059D
:1008700002D54046FFF795FD4C21204600F0C4F814
:10088000206D20F0010020654846EEE710B5431CBE
:1008900002E010F8011B71B18107FAD14FF001326B
:1008A00002C88C1A8C4314EAC211F9D0C01A0A0685
:1008B00003D0C01E10BDC01A10BD0A0401D0801E96
:1008C00010BD0902FCD0401E10BD40EA010370B506
:1008D0009B072ED14FF00136042A2AD308C810C92D
:1008E0009D1B9D43121F15EAC61517D0D8B2E1B261
:1008F000401A50EA056110D198B2A1B2401A50EAEC
:1009000005410AD123F07F4024F07F41401A50EA8C
:10091000052102D1180EA0EB146070BDA342DBD0FC
:1009200018BA21BA884201D9012070BD4FF0FF30BA
:1009300070BD0AB9002070BD10F8013B11F8014BE1
:1009400063B1A3420AD1521E08D010F8013B11F83E
:10095000014B1BB1A34201D1521EEDD1181B70BD3A
:1009600010B5203AC0F00B80B1E81850203AA0E84A
:100970001850B1E81850A0E81850BFF4F5AF5FEA7E
:10098000027C24BFB1E81850A0E8185044BF18C931
:1009900018C0BDE810405FEA827C24BF51F8043BD8
:1009A00040F8043B08BF7047D20728BF31F8023B2C
:1009B00048BF11F8012B28BF20F8023B48BF00F8C0
:1009C000012B70474FF000020429C0F0128010F094
:1009D000030C00F01B80CCF1040CBCF1020F18BF1B
:1009E00000F8012BA8BF20F8022BA1EB0C0100F0AE
:1009F0000DB85FEAC17C24BF00F8012B00F8012B81
:100A000048BF00F8012B70474FF0000200B51346B5
:100A100094469646203922BFA0E80C50A0E80C501E
:100A2000B1F12001BFF4F7AF090728BFA0E80C50CF
:100A300048BF0CC05DF804EB890028BF40F8042BC8
:100A400008BF704748BF20F8022B11F0804F18BF35
:100A500000F8012B704700004FF0013C50F8042BC8
:100A600051F8043B9A4221D1A2EB0C03934313EAC1
:100A7000CC1317D150F8042B51F8043B9A4215D1EE
:100A8000A2EB0C03934313EACC130BD150F8042BC5
:100A900051F8043B9A4209D1A2EB0C03934313EAA9
:100AA000CC13DBD04FF00000704700BFD01A01BA62
:100AB000B1FA81F101F0180122FA01F0CB40C1F145
:100AC0002001DBB2C0B2C01A2CFA01F3D11A914353
:100AD00011EAC311E6D1704770B5064C7C44064D4F
:100AE0007D4403E0206820448047241DAC42F9D1B6
:100AF00070BD0000D09E0000D49E00002DE9F041A2
:100B000017460E46054633B107FB0354E41B204647
:100B1000B047A542FAD1A5F10800BDE8F081000078
:100B2000004870472C11002070477047704770478D
:100B300038B504460A460020694601F04AFB002801
:100B400008BF38BD02460099204600F0F1FF0120A1
:100B500038BD012001F012BBF8B501F02FFB0546AE
:100B600000200C46102000BF0646A819A0420DD94F
:100B700032466946002001F02CFB070008BF01F057
:100B8000FDFA0098A04218BF0546C419FFF7C8FF38
:100B900005600746F01D20F007004619284600F0C2
:100BA0000AF8B44208BFF8BDA21B31463868BDE858
:100BB000F84000F0BDBF00210160C0E9011070479E
:100BC0001020704770B5044685690068C10601D5DC
:100BD000302600E02026C00707D070BDD4E90121EF
:100BE00030469047206A401C20626D1EF6D570BDCD
:100BF00070B5044685690078C00707D170BDD4E997
:100C0000012120209047206A401C20626D1EF6D5ED
:100C100070BD09684A0501D540B27047C905FCD5C9
:100C200000B2704709684A0501D5C0B27047C905CE
:100C3000FCD580B2704770B50C460546012A05D038
:100C40002878800600D5EA69002302E0012305E048
:100C50005B1C934202D2E05C0028F9D1A869E61837
:100C6000C01AA861286A184428622846FFF7AAFF1C
:100C700004E0D5E9012114F8010B9047B442F8D300
:100C80002846FFF7B5FF70BD2DE9F0470D469946A0
:100C90009246044600F124080168880604D5E069FC
:100CA00021F01001216000E00120A84201DD471B76
:100CB00000E00027A1697A1902EB0900081AA06177
:100CC0002078C00602D42046FFF77CFF002608E00B
:100CD000D4E901211AF806009047206A401C761CCE
:100CE00020624E45F4DB2078C0060AD52046FFF787
:100CF00069FF06E0D4E9012130209047206A401CBA
:100D00002062381EA7F10107F4DC07E0D4E90121D5
:100D100018F805009047206A401C2062281EA5F1A3
:100D20000105F3DC2046FFF763FF2078000602D5BB
:100D30000220BDE8F0870120FBE711680268006A25
:100D4000530501D508700AE0D30501D5088006E0F7
:100D5000130603D5C217C1E9000200E008600120B4
:100D6000704770472DE9FF4F0C461E464FF0FF3786
:100D70008BB0D2E90001DDF860800A908A46C1F3A9
:100D80000A5505B93D46002108464FF00000BAF16A
:100D9000000F00F4400005DA00EB80004FF4400142
:100DA00001EA50004FEA9059B9F1010F00DDB94650
:100DB0000A9850EA4A000ED044F61050A5F2FF35CA
:100DC00045432F14B8F1000F1ED07542291E1EDDB9
:100DD000C9F100021CE0B8F1010F4FF0000001D092
:100DE000302103E0F24305E02154401CB042FBDB1C
:100DF00030460022002121540B99C1F80880C1E936
:100E000000200FB0BDE8F08FBD1B6D1CDEE74A4629
:100E100000DA694206A801F0D5F806AB93E80700AE
:100E200003AB83E8070050460A9901F061FA8DE8A8
:100E30000700A0F500501F3800900398002D0ADD30
:100E400042F21F014A460844002303A90390684662
:100E500001F0CAFC09E0A0F500504A461F38002303
:100E600003A90390684601F0D4FC8DE80700000454
:100E7000000C03D04FF0FF30410800E01046B8F1FD
:100E8000000F03D00022009215461EE0751E05D407
:100E900000F068FE303262556D1EF9D5B34601226E
:100EA000084302D000227F1C04E02078302801D1C2
:100EB00000227F1E002A099784D01DE0112D07DA39
:100EC00000F050FE303262556D1C50EA0102F5D13F
:100ED000084302D00098C8B10EE00021681E05E06A
:100EE000235C625C63542254401E491C8142F7DB40
:100EF000AB46A81B401E0990002004F80B000B987D
:100F0000099AC0F80880C0E9002B7AE711264FF053
:100F1000000857E72DE9F04F88460446D21D22F01D
:100F2000070191B0D1E90001CDE90A0105F042FDC8
:100F300002460B98C00F01D02D2007E020688107E2
:100F400001D52B2002E0202101EAC000032A0990EC
:100F500001D0072A05DB03464146204600F0C6FFC4
:100F60000BE12078800601D5E06900E00620B8F1A9
:100F7000650F814606D0B8F1660F18D0B8F1670F3B
:100F800070D131E00020B9F1110F009001DB112385
:100F900001E009F101030AAA01A90CA8FFF7E2FE8A
:100FA000DDE90C70002609F10105834647E00120C8
:100FB0004B4600904FF000470AAA01A90CA8FFF782
:100FC000D1FEDDE90DB00C995D46002610B909F19E
:100FD00001000D18B9EB050003D4C0F1FF3609F18B
:100FE0000105A5EB09002BE0B9F1010F01DA4FF083
:100FF00001090020B9F1110F0090484601DD1123CD
:1010000000E003460AAA01A90CA8FFF7ABFEDDE940
:101010000C704D4600268346207800070AD4AB4565
:1010200000DA5D4601A8012D04DD411911F8011C0B
:10103000302907D04F4502DA17F1040F04DA0120F6
:1010400082460FE06D1EEEE7002F02DCED1B3E44F2
:1010500003E0781CA84200DD7D1CB81B00F1010AEA
:101060004FF000472078000703D4AA4501DB4FF07A
:10107000FF3A0021B7F1004F0DF143088DF84310FE
:1010800024D002202B23002F01DA7F422D230A21B6
:10109000021EA0F1010000DC5FB197FBF1FC97FBA1
:1010A000F1F201FB1C7C17460CF1300C08F801CD65
:1010B000EEE7A8F1010003702188090501D545215B
:1010C00000E06521A0F1010800F8011C09980FA9B2
:1010D000A1EB0807FF1D00B10120411901EBEA70E7
:1010E000A1693844081A401EA0612078C00602D4C5
:1010F0002046FFF767FD099828B1D4E90121904700
:10110000206A401C20622078C00622D52046FFF7C6
:1011100059FD1EE0002E04DBB34502DD01A8805D11
:1011200000E03020D4E901219047206A401C206271
:10113000761CAAF101005FEA000A0AD100F0F4FC73
:10114000C0680168405CD4E901219047206A401CD6
:101150002062281EA5F10105DCDC07E0D4E90121AD
:1011600018F8010B9047206A401C2062381EA7F136
:101170000107F3DC2046FFF73BFD032011B041E6F9
:1011800001694A1C02610878704700B58FB0CDE94B
:1011900001310021059105497944CDE9031011463B
:1011A0006846FFF7D7F90FB000BD0000E5FFFFFF6D
:1011B0000A6802F8010B0A607047D1E900239A42DD
:1011C00002D2531C0B60107070470000074B70B5C3
:1011D0000D467B44FFF7D9FF0446284600F0DCF8B3
:1011E00010B14FF0FF3070BD204670BDCB690000DC
:1011F0002DE9FF5F15468A460446DFF8AC80F844C7
:101200000027D8E900103E46CDE9001010E03AF87A
:1012100016106A4602A800F085FF411C07D021780D
:10122000890603D5E269391891420DD80744761C26
:101230002078800602D5E069B84205DDAE42E6DBE3
:101240003AF816000028E2D1A069C01BA061204630
:10125000FFF7B8FCD8E90010CDE90010002017E036
:101260003AF818106A4602A800F05CFFB0F1FF3FA0
:1012700081460BD000250DF1080B05E0D4E90121D2
:101280001BF8050090476D1C4D45F7D308F1010090
:10129000B0428046E4DB206A384420622046FFF7F3
:1012A000A7FCBDE8FF9F0000F29200002DE9F0418D
:1012B0008046D21D22F007020025D2E90002F5295E
:1012C00015A614D0011E72F1000106DA0023D0EB3E
:1012D000030063EB020211A608E0D8F800108B07A8
:1012E00001D50FA602E0490701D50EA6012511463A
:1012F000002408F1240704E000F034FC30323A55B1
:10130000641C50EA0102F7D12B4632462146404682
:10131000BDE8F041FFF7B8BC000000002D00000060
:101320002B0000002000000030B4002100F1240454
:1013300008E002F00705D208303542EA4372DB08C4
:101340006554491C52EA0305F3D10468002310A236
:10135000250707D5A40600D421B1C46901230DA235
:10136000641EC46130BCFFF78FBC10B50446214633
:101370001068FFF757FC02462046BDE810400023E6
:10138000D2E7D21D22F00701D1E90023CCE700000B
:101390000000000030000000007B00F0800070477B
:1013A00070B50D4601461446D36850692A4605F0CB
:1013B000B9FD002807DA411C07D0E16820F00040A1
:1013C00041F48041E160281A70BD204600F090FA97
:1013D0004FF0FF3070BDC1680022026021F48051DF
:1013E00041F0400111F4C06FC16001D082607047CC
:1013F00002694168891AC269891A816070472DE9BA
:10140000F0470446C06840F48000E060010312D554
:1014100020F40020E060810606D4E26A61688A4216
:1014200000D80A46511A216040F40010E06094F898
:101430002500BDE8F08720F40010E060800602D5AA
:10144000204600F0ACFAE06842F281014FF0FF392B
:101450000140012903D0204600F04AFAB6E0216895
:10146000002600290ADAC94340F480502160C4E90B
:1014700002606068411C61600078DAE744F2400174
:1014800008420CD020F4A04040F040002660E0600C
:1014900021696068401AE169401AA06096E02169FC
:1014A00091B9C00310D4E069FEF74CFF2061B0B1E0
:1014B000E06840F4006010F4407FE06002D140F446
:1014C0008070E06020696060E068D4F814A0C10614
:1014D0001AD5C0030ED5204600F03EFA14E004F100
:1014E000240020610120E061E06820F4407040F4B5
:1014F0008060E6E721696068401AA16901445046AE
:1015000005F048FD0028A6DBE068C0032AD5616825
:10151000E06A884200D808462169451AE069471BFD
:101520001BD02046D4F8188000F016FA08EB05010D
:101530005046C4F8188005F02DFD00288BDBE068CC
:1015400040F40030E060000202D5A0692844A061A8
:10155000E1692069C91B45180DE0204600F0FCF93F
:10156000E769F5E725696168D4E90607491BE56283
:1015700008446560A061E06820F0100010F4C06FBE
:10158000E06002D0204600F0B1FDE06840F48050F9
:10159000C4E90260000205D52069E06260606FF076
:1015A000010046E7224639462846FFF7F9FE411C6E
:1015B0000CD02918E16258B1401E2060681C6060A0
:1015C000E06840F40030E060287832E7484630E7D1
:1015D00065602046FFF7FFFEF8E72DE9F047054676
:1015E0000C46C86820F4201040F48000C8608006D3
:1015F00002D5084600F0D3F9E06841F282014FF0CD
:10160000FF390140022903D0204600F071F9B5E00E
:1016100000F42041B1F5004F0FD1C00306D5616839
:10162000E06A884200D80846606006E02069E0620F
:101630006060606905F06EFBA061A0680022EEB2F8
:1016400000280DDAE1688B050AD4C043A06041F49C
:1016500090302260E0606068411C61600670A5E027
:10166000E0689046226040F40050E060206968BB6A
:10167000606905F079FB012704F12405A0B1A08978
:1016800010F4407F08D0E069FEF75CFE206118B1DD
:10169000E06840F4006016E0E7612561E06820F44E
:1016A000407040F480600EE0E069FEF74BFE0028D9
:1016B0002061F1D0E06840F4006010F4407FE06009
:1016C00002D140F48070E06020696060E0682569C4
:1016D0006FF0010AC1051FD56168E06A884200D831
:1016E0000846411B04D02246284600F00BF9F0BB07
:1016F000E068010203D5E562C4E9015854E0691CC1
:10170000E1626160E16940F48030491EC4E9021081
:1017100030462E70BDE8F087010202D500F4803219
:101720000AE06068411C61600670E0680A2E40F4BF
:101730008030E06006D00022E16A6068814203D90F
:101740000B4602E00122F7E70346A7895B1B7F05F2
:1017500003D4E7699F4200DDE2B1814200D801462F
:10176000E5620F1AC4E90158002B09DD00E005E02D
:1017700022461946284600F0C5F808B14846C9E790
:1017800047B1A069E5626560C01BA061E06840F0F8
:101790001000E060E068000208D56168A069E562B9
:1017A000491B08446560A0615046B3E73046B1E785
:1017B0002DE9F041044616460D464769007B800737
:1017C0002ED0384605F0D0FA50BB3EB3012E02D0E1
:1017D000022E25D104E0204600F066FC05441DE001
:1017E000384605F097FAE168002841F01001E16001
:1017F00005DA204600F07CF80120BDE8F081C9033D
:101800000BD56268E16A914200D81146A269114481
:101810002269891A814200DD08460544002D01DA5B
:101820000220EAE7E16A6068E268814206D2910339
:10183000E06203D522F4003141F01002A6690027CE
:10184000AE4213DCE16A814201D90B4600E0034657
:1018500003EB060C2369ACEB030CAC4506DD8142BF
:1018600001D98C4600E084469C4505D1A7602760DD
:1018700042F02000A5620DE0AD1BE669AE1B81427F
:10188000A66000D90846C01A281A2060581960605E
:1018900022F0200003490840E060002084F84870EE
:1018A000ABE70000BFCFD7FF70B5C468A50713D062
:1018B000650211D4B2F5807F09D0B2F5007F06D061
:1018C000B2F5806F08D1012300F1240106E05D1E0E
:1018D0006FF07F46B54201D3012070BD0161C36145
:1018E000416024F470611143C160002070BD0000AC
:1018F000C16821F4001141F08001C16000218160C4
:10190000016070472DE9F047814614460E464FF0BE
:10191000FF383248D5685769054209D03846A16971
:1019200005F038FB002811DB2C48C0430540E5607A
:101930002B4632464946384605F05EFBA16920F049
:101940000042B21A11440028A16103D02046FFF7DB
:10195000CFFF4046BDE8F08770B504460569C06A10
:101960006168884200D80846E16821F42011E160EE
:10197000C90312D5A84208D02246411B2846FFF7CA
:10198000C1FF10B14FF0FF3070BD0020E562C4E927
:101990000150E06820F48030E060002070BD10B598
:1019A0000446C06820F02000E060A16AA069884277
:1019B0000DD02046FFF7D0FFE06820F4405040F003
:1019C0001000E060A06AA0612069E062606044F2FB
:1019D0004001E0688843E06010BD00001000020094
:1019E00010B542485421FFF70FF841485421FFF742
:1019F0000BF840485421FFF707F83F493B483C4A61
:101A00003F4B08603D490A603A491960531C036521
:101A1000481C1065012008653B48344A39A17844C8
:101A2000FEF78EFE20B9384878440A3800F09FFB54
:101A300037482F4A35A17844FEF782FE20B9344852
:101A400078440A3800F093FB32482A4A2FA17844A0
:101A5000FEF776FE20B92F4878440A3800F087FB5D
:101A600040232248DC0000212246FFF71DFF20B161
:101A700025487844543800F07AFB1D48224640231C
:101A80000021FFF711FF20B121487844543800F0BD
:101A90006EFB1848224610230021FFF705FF00289F
:101AA00006D01C487844BDE81040563800F05FBBB3
:101AB00010BD104870B5006D20F001040B48FEF712
:101AC000BFFE0B48FEF7BCFE0A48FEF7B9FE09E070
:101AD000206D20F001052046FEF7B2FE2046FEF7FD
:101AE00060FC2C46002CF3D170BD000030100020AB
:101AF00084100020D81000203C020020400200206A
:101B00004402002072000000AA8300007700000059
:101B1000998300008983000010B500F037FBBDE811
:101B2000104000F01FBB000000487047301100203B
:101B3000034640688C46002818BF88423CBF0346D5
:101B40004068F8D318681844884207D00CF10300A5
:101B500020F00700001D411A521A0146081D0A60B4
:101B6000FEF71FBC30B5B0F10A024FEA900E71F1DA
:101B700000034EEA817EB0EB0E0061EB91014FEA6B
:101B8000101E4EEA017E10EB0E0041EB11114FEAE0
:101B9000102E4EEA016E10EB0E0041EB11214FEAC0
:101BA000104E4EEA014E10EB0E0041EB1141401871
:101BB00041F100014FEAD00040EA41704FEAD10103
:101BC00010EB80054FEA810444EA907444EB010471
:101BD0006D1944EB0404521BA3414FF0000348BFAE
:101BE0000A3200D530BD401C41F1000130BD00007B
:101BF0002DE9F04F04460D46D21D22F0070089B0B2
:101C0000D0E900974846394604F0D4FE0246F80F62
:101C100001D02D2307E02068810701D52B2302E0A6
:101C2000202101EAC0038DF820300BB1012000E033
:101C30000020032A824601D0072A04DB29462046D9
:101C400000F054F93FE12078800601D40D2500E032
:101C5000E569C7F30A560D2D49DA00214FEA175BF3
:101C600008464FF00000002F00F4400007DA00EBB8
:101C700080004FF4400100EBD07001EA6000811554
:101C8000012901DD4FF0FF3100224FEA850CBCF144
:101C9000180F06D31346ACF118004FF08052C24023
:101CA00003E04FF4801323FA0CF30CF10C0CBCF19D
:101CB000200F04D3ACF1200C09FA0CF001E007FA74
:101CC0000CF000294FF0004801DD18B90FE00ED1EB
:101CD00040450CD319EB02095F4121B9404502D1BF
:101CE0009F4329EA0209BBEB175F00D0761C2088CE
:101CF000000502D57B48784402E07A4878441938D8
:101D000008AA302302F80A30037C0AF10101002EF0
:101D10000AF1020A53546A4602DC4FF0300101E036
:101D20004FF031014FF001088DF8001002D0A6F2FB
:101D3000FF3603E059EA470100D06B4E002D02DC6C
:101D40002178090704D54FF002082E218DF80110E3
:101D5000C44600210BE0C7F303433F01C35C491CA9
:101D60006D1E02F80830052908F1010801DA002D7E
:101D7000F1DC00210CE000EB1973491C1B786D1E8F
:101D8000082902F808304FEA091908F1010801DAB8
:101D9000002DF0DC21688B0602D516E0A8F10108C1
:101DA000E04505DD02EB080313F8013C302BF5D0CC
:101DB000B8F1000F09DD02EB080313F8013C2E2BEC
:101DC00003D1090701D4A8F10108002D05DD3E214A
:101DD00002F808106D1E08F10108407C002E02F880
:101DE000080008F1010804DA2D20764202F8080004
:101DF00002E02B2002F808000A214FF47A70864294
:101E000008F101080BDB96FBF0F3303302F80830E1
:101E100096FBF0F308F1010800FB136601E0642E65
:101E20000CDB642096FBF0F3303302F8083096FBAD
:101E3000F0F308F1010800FB136601E00A2E06DB4F
:101E400096FBF1F0303002F8080008F1010896FB2B
:101E5000F1F001FB1060303002F80800A16908F1D0
:101E6000010808EB050202EB0A00081AA0612078BD
:101E7000C00602D42046FEF7A5FE216A08AE01EB9B
:101E80000A00206204E0D4E9012116F8010B904712
:101E9000BAF1010AF7D22078C00602D52046FEF733
:101EA00091FE6E4609E016F8010B3E280FD0D4E9EA
:101EB00001219047206A401C2062B8F10108F2D24B
:101EC0002046FEF795FE09B00320BDE8F08F206A9A
:101ED0002844206203E0D4E90121302090476D1EA0
:101EE000EBD3F8E71588000002FCFFFF2DE9F04175
:101EF0001F46044603260168072A01F4006004DB3C
:101F000008B116A505E016A503E008B115A500E087
:101F100015A521F010002060A069C01EA0610FB1BE
:101F2000401EA0612046FEF74DFE4FB1D4E90121CD
:101F300038469047206A401C2062C01C206206E0A0
:101F4000206AFAE7D4E9012115F8010B9047761EC3
:101F5000F8D22046FEF74CFEBDE8F0814E414E001F
:101F60006E616E00494E4600696E660010B54369A9
:101F700013B1AFF3008001E0FEF75DFE012010BD5C
:101F8000127800F124010A7000224A700122EDE764
:101F900011684FF0FF32E9E710B5436913B1AFF3B1
:101FA000008001E0FFF724F9012010BD128800F144
:101FB000240182840022C2840122EDE711684FF0DF
:101FC000FF32E9E72DE9F047814616468AB03548E9
:101FD00078440DC88DE80D0032487844801C03AC6D
:101FE0000DC884E80D0041F69B300844372190FB72
:101FF000F1F290FBF1F5A5F1800501FB12041B3C09
:1020000002D56442012000E00020DFF898A080465D
:102010000027FA44AAF1BE0A0EE0E0070AD03246D1
:10202000684607EB470101230AEB810100F0F1FB51
:102030008DE8070064107F1C002CEED1194F7F44FF
:10204000AE3F19E0E80715D007EB04100DF1180AB0
:1020500090E80E008AE80E00C068F04201D198199D
:1020600008903246012306A903A800F0D2FB03AB77
:1020700083E807006D10641C002DE3D14FF00103CD
:1020800032466946B8F1000F03A802D000F0ACFB5D
:1020900001E000F0BEFBC9E90001C9F808200AB060
:1020A000BDE8F087CC85000010B50146C2689007F6
:1020B00003D0900607D5886A0AE0FEF73FF90121B0
:1020C0000160881E10BD8B69486818440B69C01AEE
:1020D00091F848301BB191F84910401A10BD110316
:1020E000FCD50028FADD401E10BD000070B5054685
:1020F00040F202260A4C0FE094F85000C00708D0C6
:10210000AC4206D0E06836EA000002D12046FEF775
:10211000E5FA206D20F00104002CEDD170BD000027
:102120003010002070B516460C46054600F074F8D5
:10213000036893F80101012806D0FF2C0FD8185D21
:1021400068B101202C7070BDD3F8070132462146DA
:1021500003F2071303442846BDE8704018474FF0C8
:10216000FF3070BD002801D000F050B8704710B5A6
:1021700000F074F8BDE81040FFF7F4BF10B500F0B0
:1021800087F8BDE81040FFF7EDBF000010B5002153
:1021900002A000F049F8012010BD0000534947504B
:1021A00056464E3A20507572652076697274756194
:1021B0006C20666E2063616C6C656400124B69462E
:1021C00000F580528A421A6001D8114670471960A2
:1021D000704730B50C4D6B46A3F580532C682244F4
:1021E0009A420FD89B1A02F5805003EBD37302EB8F
:1021F0006303984200D91846C01D20F007020C6006
:10220000101B2A6030BD0000480200200149182040
:10221000ABBEFEE72600020010B5FFF785FC001DEF
:1022200010BD00BF2D77000070B505460C460A2092
:1022300000E06D1C00F054F835B128780028F8D182
:1022400002E0641C00F04CF814B120780028F8D1AA
:10225000BDE870400A2000F043B8000010B5014608
:1022600002A0FFF7E1FF012010BD000053494752D3
:10227000545245443A2052656469726563743A2049
:1022800063616E2774206F70656E3A200000000055
:1022900010B5012805D0002103A0FFF7C5FF0120DC
:1022A00010BD09A1F8E7000053494752544D454D70
:1022B0003A204F7574206F662068656170206D65E7
:1022C0006D6F7279000000003A2048656170206DE2
:1022D000656D6F727920636F7272757074656400DA
:1022E00008B569468DF800000320ABBE08BD7047F5
:1022F0005FEA400C08BF91F0000F4FEA8C234FEAD1
:10230000C12243EA51514FEA1C5018BF00F5F0407A
:102310004FEA300018BF41F000415FEA6C5C00F00A
:102320002980BCF1FF3F08BF40F080407047130C8C
:1023300006BF12044FF0100C4FF0000C130E04BF38
:1023400012020CF1080C130F04BF12010CF1040C63
:10235000930F04BF92000CF1020CD30F04BF520084
:102360000CF1010C11464FF00002A0F11F00A0EB90
:102370000C00704711F0004F08BF704731F000416A
:102380003FF4D5AF0B0C06BF09044FF0100C4FF013
:10239000000C0B0E04BF09020CF1080C0B0F04BF5C
:1023A00009010CF1040C8B0F04BF89000CF1020C25
:1023B000CB0F04BF49000CF1010CCCF12003A0EBC2
:1023C0000C0022FA03F302FA0CF241EA030100F1D5
:1023D0000100704720F07F4C80EA030023F07F4724
:1023E000ACEB070303F57C5300F0004003F1FF035F
:1023F0002DE980494FEA154B09B44FEA144325EA09
:102400000B4E24EA03480FF2042606EB1327490873
:102410003E785FEA320203FB0667C7F5000707FB59
:1024200006F64FEA54374FEAD64606F1020607FB96
:10243000066CCCF1005C4FEA1C472CEA074C07FB0A
:1024400006F40CFB06F504EB15464FEA961634BF6E
:1024500000204FF000404FEAD13706FB07FC4FEA5F
:102460001C4C0CFB0BF7D21B03FB0CF761EB0701B9
:102470000CFB0EF7B0EB074072EB17420CFB08F7B2
:1024800034BFA2EB0742B2EB074261EB17414FEAC0
:102490000C444FEA910706FB07FC4FEA1C4C0CFB6F
:1024A0000BF7B0EBC74072EB573203FB0CF734BFAE
:1024B000A2EBC742B2EBC74261EB57310CFB0EF700
:1024C000B0EBC70072EB57720CFB08F734BFA2EBFE
:1024D000C702B2EBC70261EB5771039F4FEA8161FC
:1024E00041EA921104EBCC044FEAD1374FEA826201
:1024F00006FB07FC42EA90124FEA80604FEA1C4C50
:102500000CFB0BF7D21B03FB0CF761EB07010CFB79
:102510000EF7B0EB074072EB17420CFB08F734BF25
:10252000A2EB0742B2EB074261EB17414FEA8C5531
:102530004FEA910704EB9C2406FB07FC4FEA1C4C76
:102540000CFB0BF7B0EBC74072EB573203FB0CF7F9
:1025500034BFA2EBC742B2EBC74261EB57310CFB71
:102560000EF7B0EBC70072EB57720CFB08F734BFE5
:10257000A2EBC702B2EBC70261EB577115EB4C251A
:102580004FEA816141EA92114FEA82624FEAD13704
:1025900042EA901206FB07FC44F100044FEA806017
:1025A0004FEA1C4C0CFB0BF7D21B03FB0CF761EB47
:1025B00007010CFB0EF7B0EB074072EB17420CFB68
:1025C00008F734BFA2EB0742B2EB074261EB1741B9
:1025D00015EB1C154FEA813141EA92414FEA8232F4
:1025E00042EA90424FEA80304FEA0C7644F1000410
:1025F00048EA03434EEA0B484FF0000EB2EB080CDA
:1026000071EB030724BF624639464EEB0E0E4FF0C6
:10261000000B0018524149414BEB0B0BB2EB080C7D
:1026200071EB03077BF1000B24BF624639464EEB8A
:102630000E0E4FF0000B0018524149414BEB0B0BB3
:10264000B2EB080C71EB03077BF1000B24BF624671
:1026500039464EEB0E0E51EA020718BF46F001064E
:1026600016EB0E7655F1000254F1000103D5BDE8DA
:102670008901BDE80088BDE88901BDE80048B619B8
:10268000524141EB0101A3F10103704780807F7E3D
:102690007D7C7B7A797877767675747372717170D8
:1026A0006F6E6E6D6C6C6B6A6A696868676666658A
:1026B0006464636362616160605F5F5E5E5D5D5C18
:1026C0005C5B5B5A5A595958585757565655555589
:1026D0005454535352525251515050504F4F4F4EE9
:1026E0004E4D4D4D4C4C4C4B4B4B4A4A4A49494937
:1026F0004848484747474746464645454544444479
:10270000444343434342424242414141002B9C46A1
:1027100030D477002BD01CB54FEA370703B44FF005
:1027200010004FF01001BAF1000F06D0BCF1000FFD
:10273000DCBF40F0080040F008014FF000000FBC83
:10274000BDE810400BF1010BBBF1010F08BF5FEAC0
:10275000170722BF12F1010211F101014FF00041F0
:1027600043F1000300F0004043EA00007047F9D352
:102770005708D0E746EA064613F1400F4FEA1646DF
:102780001FDD13F1200FDFBF16430A46002120335F
:102790005B42BED0C3F1200746EA064602FA07F7BD
:1027A0004FEA164646EA0706C3F1200722FA03F26B
:1027B00001FA07F721FA03F14FF0000342EA07029A
:1027C000A7E746EA020646EA06464FEA164646EA02
:1027D0000106BCBF46EA0646360C4FF000034FF038
:1027E00000024FF0000194E72DE9804C9A46934691
:1027F00070B491E8380007C831EA400C48BF34EAA9
:10280000430C03D5FFF7E6FDFFF780FFF0BCBDE802
:10281000008C2DE9804C9A46934670B491E83800BC
:1028200007C810F0804F08BF13F0804F03D100F0AD
:1028300005F8FFF76BFFF0BCBDE8008C20F07F4788
:1028400080EA030023F07F4C07EB0C03A3F57C53D5
:1028500000F00040A3F1FE0392F0000F00F0B380FF
:1028600095F0000F00F077802DE901494FEA114003
:102870004FEA144621EA004800FB06FC24EA06471A
:1028800008FB06F607FB08F800FB07F718EB0648FD
:102890004CEB164C4FEA124B18EB07484FEA154623
:1028A0004CEB174022EA0B4E0BFB06FC25EA0647D1
:1028B0000EFB06F607FB0EFE0BFB07F71EEB064EA4
:1028C0004CEB164C4FF000061EEB074E4CEB174B33
:1028D00018EB0B0840F1000018EB0E0B58EB00084A
:1028E00040F100008F1A4FF000013CBFC943661B46
:1028F00014BFB5EB040C00213CBFC943F61B4FEAE3
:1029000017444EEA8E0E27EA04454FEA1C4704FBA3
:1029100007622CEA074C05FB07F70CFB05F604FBE6
:102920000CFC16EB074642EB174216EB0C4642EB4B
:102930001C421BEB060658EB0202414146EA9E068A
:1029400001D5BDE80189B619524141EB0101A3F15E
:102950000103BDE801894FEA14454FEA114724EA13
:10296000054621EA074C05FB07F406FB07F70CFBBD
:1029700006F105FB0CFC11EB074144EB17444FEA51
:10298000124711EB0C4144EB1C4422EA074C05FBB7
:1029900007F206FB07F70CFB06F605FB0CFC16EB33
:1029A000074642EB174216EB0C4642EB1C456A18F1
:1029B00054F1000148BF7047B619524141EB010183
:1029C000A3F10103704795F0000F37D04FEA114291
:1029D0004FEA144721EA024624EA074C02FB07F1BA
:1029E00006FB07F70CFB06F402FB0CFC14EB074498
:1029F00041EB17414FEA154714EB0C4441EB1C41E6
:102A000025EA074C02FB07F506FB07F70CFB06F669
:102A100002FB0CFC16EB074645EB174516EB0C4684
:102A200045EB1C42121951F1000148BF7047B6191D
:102A3000524141EB0101A3F1010370474FEA1445F4
:102A40004FEA114724EA054621EA074C05FB07F146
:102A500006FB07F70CFB06F24FF0000605FB0CFC2B
:102A600012EB074241EB174112EB0C4251EB1C41B8
:102A700048BF7047921841EB0101A3F10103704771
:102A800010B505F0EFFD05F037FC10BD10B504469C
:102A90000021204607F006F810BD10B504460021BD
:102AA000204606F0FFFF10BD10B50021014804F0DC
:102AB0008FFC10BD0064004010B50021014804F0F7
:102AC00087FC10BD0064004010B50021014804F0EF
:102AD0007FFC10BD0064004010B50121014804F0E6
:102AE00077FC10BD0068004010B50121014804F0DA
:102AF0006FFC10BD0068004010B50121014804F0D2
:102B000067FC10BD0068004070B504460A4600230B
:102B1000157D012000FA05F33C4901F500710868B4
:102B200040F001000860086820F47C5008600868E4
:102B3000556A40EA05200860C8699843C861A1F554
:102B40000071D069C8B9D1F80C029843C1F80C02E1
:102B5000908880B2958940EA054501F51070566964
:102B600040F83650108880B2158940EA054501F5D5
:102B70001070566900EBC6004560D069012819D174
:102B8000D1F80C021843C1F80C02908880B2158865
:102B900040EA054501F51070566940F836509089B5
:102BA00080B2158940EA054501F51070566900EBC1
:102BB000C6004560906928B9D1F804029843C1F86D
:102BC000040204E0D1F804021843C1F804021069B9
:102BD00020B9D1F814029843C1F8140210690128F1
:102BE00004D1D1F814021843C1F81402106A012864
:102BF00004D1D1F81C021843C1F81C02D1F800021C
:102C000020F00100C1F80002002070BD0064004007
:102C100070B50446002600250CB9012070BD94F85B
:102C20003C0028B9002084F83D00204600F0D6F88A
:102C3000022084F83C002068006820F0020021682F
:102C400008602068006840F001002168086000F01A
:102C5000DBF805460EE000F0D7F8401B0A2809D93A
:102C6000032084F83C0000BF002084F83D0000BF32
:102C70000320D3E72068406800F001000028EAD074
:102C80002068406800F00100002875D0A069012884
:102C900006D12068006840F080002168086005E0E7
:102CA0002068006820F0800021680860E069012841
:102CB00006D12068006840F040002168086005E007
:102CC0002068006820F0400021680860206A012820
:102CD00006D12068006840F020002168086005E007
:102CE0002068006820F0200021680860606A0128E0
:102CF00006D12068006840F010002168086005E0F7
:102D00002068006820F0100021680860A06A01288F
:102D100006D12068006840F008002168086005E0DE
:102D20002068006820F0080021680860E06A012837
:102D300006D12068006840F004002168086005E0C2
:102D40002068006820F0040021680860D4E90201CE
:102D5000084321690843616908436168491E0843C3
:102D60002168C8612068006820F0010021680860BF
:102D700000F04AF8054615E020E000F045F8401B59
:102D80000A280FD9032084F83C0000BF002084F8F3
:102D90003D0000BF1048006840F020000E49086068
:102DA00003203BE72068406800F001000028E4D1E0
:102DB0002068406800F0010000B90126012E06D10C
:102DC00000202064012084F83C00002026E7042035
:102DD00084F83C00012021E71408024070470146B6
:102DE00091F83500022803D0802048650120704703
:102DF000052081F835000868006820F001000A68A5
:102E000010600020F3E700000148006870470000F0
:102E10001002002002480068401C01490860704709
:102E20001002002010B50B48006840F400700949FA
:102E300008600846006840F4806008600846006842
:102E400040F4807008600F2000F006F800F092F85F
:102E5000002010BD003C024010B588B0044602A915
:102E600003A800F037FD00F05DFD029000BF0020D8
:102E700001903948006840F008003749086008466A
:102E8000006800F00800019000BF00BF3248203801
:102E9000006840F0080030492039086008460068A2
:102EA00020F0080008602D482D4908604FF0FF31E0
:102EB0002B48C160069840B92A490298B0FBF1F04E
:102EC00080B2401E2649486008E00298400025492B
:102ED000B0FBF1F080B2401E21494860002120483B
:102EE00001618160416101F07EF832201E491F4B73
:102EF0001A6800F1100342F8231000BF00BF002839
:102F000009DB00F01F02012191404209920002F109
:102F1000E022C2F8001100BF0021114801F07EF844
:102F200004210F4801F07AF80D480068406A104902
:102F300008600846006800F57A70094909688863E6
:102F400007480068C06840F0040005490968C86087
:102F5000002008B010BD000040380240000C0040C6
:102F60001809002040420F00E196000808ED00E03B
:102F7000E00100207047000038B5002400BF0020A9
:102F800000902348006840F08050214908600846BE
:102F9000006800F08050009000BF00BF01200104D5
:102FA00091FAA1F1B1FA81F11A4A42F82100FFF732
:102FB0002BFF044607E0FFF727FF001BB0F57A7FE1
:102FC00001D9032038BD1448406800F48030B0F5C2
:102FD000803FF0D10120410491FAA1F1B1FA81F1D1
:102FE0000C4A42F82100FFF70FFF044607E0FFF705
:102FF0000BFF001BB0F57A7F01D90320E2E70648FA
:10300000406800F40030B0F5003FF0D10020D9E76F
:103010004038024000000E42007000402DE9FE4F93
:103020000446002500260027A846A946AA46AB4626
:10303000002002900190207800F0010058B1FE4875
:10304000006820F0C060A16B0843FB490860A06BDA
:1030500008B901200290207800F0020002280BD16C
:10306000F548006820F0C050E16B0843F249086061
:10307000E06B08B901200290207800F004000428D9
:1030800011D1ED48006820F44010216B0843EA4953
:103090000860206BB0F5801F01D101200290206BE9
:1030A00008B901200190207800F00800082811D10B
:1030B000E148006820F44000616B0843DE49086085
:1030C000606BB0F5800F01D101200290606B08B9F0
:1030D00001200190207800F0200020286FD100BF4F
:1030E00000200090D4484C38006840F08050D2490D
:1030F0004C3908600846006800F08050009000BF1E
:1031000000BFCE48006840F48070CC490860FFF7EB
:103110007BFE054607E0FFF777FE401B022802D939
:103120000320BDE8FE8FC548006800F480700028C9
:10313000F1D0C1481C38006800F4407656B3B4F8AA
:10314000400000F44070B04224D0BB481C380068F6
:1031500020F440760120BA49086000200860B64893
:103160001C380660006800F0010098B1FFF74CFEC3
:10317000054608E0FFF748FE401B41F288318842CF
:1031800001D90320CDE7AC481C380068C0F34000EB
:103190000028EFD000BFB4F8400000F44070B0F554
:1031A000407F0DD1A4488438006820F4F810A54A67
:1031B000216C11400843A0498439086008E013E0FD
:1031C0009D488438006820F4F8109B4984390860D1
:1031D00099481C380068B4F84010C1F30B0108434B
:1031E00095491C39086000BF207800F010001028B5
:1031F00003D194F8580094490860207800F08000CA
:10320000802809D18C480830006820F44000E16C27
:103210000843894908310860207800F040004028C0
:1032200009D185480830006820F08060A16C08430F
:10323000814908310860208800F48070B0F5807FF3
:103240000FD17D480830006820F00060616D0843B0
:10325000794908310860606DB0F1006F01D101203B
:103260000190208800F40070B0F5007F09D1724809
:103270000830006820F08050616C08436E490831C6
:103280000860208800F48060B0F5806F0FD16A4834
:103290000830006820F00050216D0843664908316D
:1032A0000860206DB0F1005F01D10120029002980A
:1032B000012803D02068B0F5006F7DD1002063495C
:1032C0008866FFF7A1FD054606E0FFF79DFD401B60
:1032D000022801D9032024E757488C380068C0F33E
:1032E000C0600028F1D1207800F0010008B1A06B87
:1032F00030B1207800F00200022848D1E06BE8BB32
:103300004D480838006800F440304FF4403191FADD
:10331000A1F1B1FA81F1C840401C47004648083885
:10332000006800F070604FF0706191FAA1F1B1FA9D
:1033300081F120FA01F847F6C07292FAA2F2B2FACD
:1033400082F2D4E90101914008430121C1EB570108
:103350004FF4403292FAA2F2B2FA82F2914008435C
:103360004FF0706191FAA1F1B1FA81F108FA01F11F
:1033700008434FF0E04292FAA2F200E007E0B2FA0E
:1033800082F26169914008432B490839086020782E
:1033900000F00400042803D1206BB0F5801F08D092
:1033A000207800F00800082862D1606BB0F5800F2B
:1033B0005ED12148083800E0EDE0006800F44030BC
:1033C0004FF4403191FAA1F1B1FA81F1C840401CAB
:1033D000470019480838006800F0E0404FF0E0412D
:1033E00091FAA1F1B1FA81F120FA01F947F6C07220
:1033F00092FAA2F2B2FA82F2D4E9010191400843B2
:103400000121C1EB57014FF4403292FAA2F2B2FA15
:1034100082F2914008434FF0706292FAA2F2B2FA3F
:1034200082F22169914008434FF0E04191FAA1F105
:10343000B1FA81F10CE000008C38024000700040CD
:10344000400E4742FFFCFF0FE01147420000474299
:1034500009FA01F10843A9490860A8480830006842
:1034600020F01F00A16A491E0843A44908310860E2
:10347000208800F48060B0F5806F47D1206DB0F1F6
:10348000005F43D19D48006800F440304FF4403164
:1034900091FAA1F1B1FA81F1C840401C4FEA40080D
:1034A0009648006800F0E0404FF0E04191FAA1F149
:1034B000B1FA81F120FA01F947F6C07292FAA2F24C
:1034C000B2FA82F2D4E90101914008430122E16895
:1034D000C2EB51014FF4403292FAA2F2B2FA82F2F8
:1034E000914008434FF0706191FAA1F1B1FA81F176
:1034F00008FA01F108434FF0E04191FAA1F1B1FA65
:1035000081F109FA01F108437C490860208800F440
:103510000060B0F5006F29D147F6C07292FAA2F2AE
:10352000B2FA82F2D4E90101914008430122E16834
:10353000C2EB51014FF4403292FAA2F2B2FA82F297
:10354000914008434FF0706292FAA2F2B2FA82F20E
:103550002169914008434FF0E04292FAA2F2B2FA98
:1035600082F261699140084364490860012064491E
:103570008866FFF749FC054606E0FFF745FC401B5F
:10358000022801D90320CCE55C4884380068C0F3E8
:10359000C0600028F1D0019801287DD10020584951
:1035A0000867FFF731FC054606E0FFF72DFC401BDE
:1035B000022801D90320B4E5504884380068C0F3DC
:1035C00040700028F1D1207800F00400042801D1D7
:1035D000206B30B1207800F0080008283CD1606BE7
:1035E000D0BB4648001D006800F440304FF4403125
:1035F00091FAA1F1B1FA81F1C840401C4FEA400AAA
:1036000047F6C07292FAA2F2B2FA82F2D4E9060147
:10361000914008430121C1EB5A014FF4403292FA24
:10362000A2F2B2FA82F2914008434FF0706292FA2D
:10363000A2F2B2FA82F2616A914008432F49091D51
:103640000860081D006820F4F851E06A401E41EA55
:1036500000202A4908310860208800F48070B0F505
:10366000807F34D1606DB0F1006F30D12348001DF0
:10367000006800F070604FF0706191FAA1F1B1FA4A
:1036800081F120FA01FB47F6C07292FAA2F2B2FA77
:1036900082F2D4E9060100E02EE0914008430122C5
:1036A000216AC2EB51014FF4403292FAA2F2B2FA0F
:1036B00082F2914008434FF0706191FAA1F1B1FAA2
:1036C00081F10BFA01F108430C49091D0860012042
:1036D0000B490867FFF798FB054606E0FFF794FBE8
:1036E000401B022801D903201BE5044884380068E8
:1036F000C0F340700028F1D0002012E58438024069
:103700000000474270B504460D4600266D4800682B
:1037100000F00F00A84209D26A490D7008460068FF
:1037200000F00F00A84201D0012070BD207800F009
:103730000200022807D16448006820F0F000A16868
:10374000084361490860207800F00100002877D024
:103750006068012807D15C4808380068C0F3404021
:10376000B8B90120E1E76068022802D06068032848
:1037700007D1554808380068C0F3406048B90120B7
:10378000D3E7514808380068C0F3400008B9012069
:10379000CBE74D48006820F00300616808434A49C0
:1037A0000860FFF731FB06466068012810D108E089
:1037B000FFF72AFB801B41F28831884201D90320A0
:1037C000B3E74148006800F00C000428F0D137E06E
:1037D0006068022810D108E0FFF716FB801B41F259
:1037E0008831884201D903209FE73748006800F0FC
:1037F0000C000828F0D123E06068032810D108E00D
:10380000FFF702FB801B41F28831884201D9032077
:103810008BE72D48006800F00C000C28F0D10FE079
:1038200008E0FFF7F1FA801B41F28831884201D9A4
:1038300003207AE72448006800F00C000028F0D14B
:103840002048006800F00F00A84209D91D490D70FA
:103850000846006800F00F00A84201D0012064E78C
:10386000207800F00400042807D11748006820F4ED
:10387000E050E168084314490860207800F008002F
:10388000082808D11048006820F46040216940EA07
:10389000C1000D49086000F071F80B49096801F09A
:1038A000F001F02292FAA2F2B2FA82F2D140074A73
:1038B000515CC840064908600F20FFF7CDFA002090
:1038C00033E70000003C024008380240A0A4000892
:1038D000140200200F2202600D4A126802F0030257
:1038E00042600B4A126802F0F0028260084A1268D5
:1038F00002F4E052C260064A126802F46042D20842
:103900000261044A126802F00F020A607047000068
:1039100008380240003C024001480068704700003F
:103920001402002000B5FFF7F7FF0749096801F40A
:10393000E0514FF4E05292FAA2F2B2FA82F2D14090
:10394000024A515CC84000BD08380240B0A40008DB
:1039500000B5FFF7E1FF0749096801F460414FF442
:10396000604292FAA2F2B2FA82F2D140024A515C6B
:10397000C84000BD08380240B0A40008F0B50021DE
:103980000022002300240020464D2D6805F00C0580
:1039900035B1042D06D0082D06D00C2D7ED140E087
:1039A00041487DE041487BE03E4D2D1F2D6805F0EC
:1039B0003F013C4D2D1F2D6805F4800585B13B4D21
:1039C000B5FBF1F6374D2D1F2D6847F6C0773D400A
:1039D00097FAA7F7B7FA87F7FD4006FB05F20FE065
:1039E000314DB5FBF1F62F4D2D1F2D6847F6C077F1
:1039F0003D4097FAA7F7B7FA87F7FD4006FB05F2B7
:103A0000284D2D1F2D6805F440354FF4403696FAA9
:103A1000A6F6B6FA86F6F5406D1C6B00B2FBF3F025
:103A20003EE0204D2D1F2D6805F03F011D4D2D1F3F
:103A30002D6805F4800585B11C4DB5FBF1F6194DD7
:103A40002D1F2D6847F6C0773D4097FAA7F7B7FAC4
:103A500087F7FD4006FB05F20FE0134DB5FBF1F6CD
:103A6000104D2D1F2D6847F6C0773D4097FAA7F7F8
:103A7000B7FA87F7FD4006FB05F20A4D2D1F2D68AA
:103A800005F0E0454FF0E04696FAA6F6B6FA86F65F
:103A900025FA06F4B2FBF4F002E0FFE7024800BFAB
:103AA00000BFF0BD083802400024F40000127A0084
:103AB00038B504460025207800F0010000286FD0BA
:103AC000FE48006800F00C0004281BD0FB4800688A
:103AD00000F00C00082807D1F848001F006800F427
:103AE0008000B0F5800F0DD0F448006800F00C00A5
:103AF0000C2813D1F148001F006800F48000B0F5D5
:103B0000800F0BD1ED4808380068C0F34040002812
:103B100059D06068002856D1012038BD00BF6068C8
:103B2000B0F5803F08D1E5480838006840F480309F
:103B3000E249083908601EE06068B0F5A02F0DD199
:103B4000DE480838006840F48020DC490839086005
:103B50000846006840F4803008600CE0D748083818
:103B6000006820F48030D5490839086008460068AC
:103B700020F48020086000BF606890B1FFF744F92E
:103B8000054606E0FFF740F9401B642801D90320F1
:103B9000C3E7CA4808380068C0F340400028F1D0A5
:103BA00011E0FFF731F9054606E0FFF72DF9401B5C
:103BB000642801D90320B0E7C04808380068C0F382
:103BC00040400028F1D1207800F00200022875D191
:103BD000BA48006800F00C00B8B1B848006800F0BE
:103BE0000C00082805D1B548001F006800F48000CB
:103BF00058B1B248006800F00C000C2821D1AF4841
:103C0000001F006800F48000D8B9AC48083800688C
:103C1000C0F3400020B1E068012801D001207CE71A
:103C2000A6480838006820F0F800F82292FAA2F2BC
:103C3000B2FA82F2216991400843A049083908602C
:103C40003CE0E06828B301209D490860FFF7DCF8FC
:103C5000054606E0FFF7D8F8401B022801D90320EB
:103C60005BE7964808380068C0F340000028F1D0B0
:103C700092480838006820F0F800F82292FAA2F280
:103C8000B2FA82F22169914008438C4908390860F0
:103C900014E000208A490860FFF7B6F8054606E000
:103CA000FFF7B2F8401B022801D9032035E783480B
:103CB00008380068C0F340000028F1D1207800F0F7
:103CC000080008282CD16069A8B101207D4908604E
:103CD000FFF79AF8054606E0FFF796F8401B022822
:103CE00001D9032019E775486C300068C0F3400023
:103CF0000028F1D014E0002072490860FFF784F832
:103D0000054606E0FFF780F8401B022801D9032092
:103D100003E76A486C300068C0F340000028F1D126
:103D2000207800F0040004287FD100BF002000901C
:103D300062483830006840F080506049383108608F
:103D40000846006800F08050009000BF00BF5E4849
:103D5000006840F480705C490860FFF755F805463C
:103D600006E0FFF751F8401B022801D90320D4E6F2
:103D70005548006800F480700028F2D000BFA068A9
:103D8000012808D14D486830006840F001004B49D7
:103D9000683108601DE0A06805280DD147486830EB
:103DA000006840F004004549683108600846006832
:103DB00040F0010008600CE040486830006820F0E6
:103DC00001003E49683108600846006820F00400A0
:103DD000086000BFA068A0B1FFF716F8054608E02C
:103DE000FFF712F8401B41F28831884201D90320C5
:103DF00093E6324868300068C0F340000028EFD0F6
:103E000013E0FFF701F8054608E0FEF7FDFF401B51
:103E100041F28831884201D903207EE62748683084
:103E20000068C0F340000028EFD1A069F0B3234838
:103E3000006800F00C0008287CD0A069022862D13C
:103E400000201F490866FEF7DFFF054606E0FEF783
:103E5000DBFF401B022801D903205EE61748083823
:103E60000068C0F340600028F1D1D4E9070108439D
:103E700047F6C07292FAA2F2B2FA82F2616A9140F7
:103E800008430122A16AC2EB51014FF4403292FA79
:103E9000A2F2B2FA82F2914008434FF0706292FAB5
:103EA000A2F2B2FA82F2E16A914000E044E00843F3
:103EB0004FF0E04292FAA2F208E000000838024017
:103EC00000004742800E474200700040B2FA82F282
:103ED000216B914008431949086001201849086680
:103EE000FEF792FF054606E0FEF78EFF401B022814
:103EF00001D9032011E61148001F0068C0F340609B
:103F00000028F1D018E000200D490866FEF77CFF7C
:103F1000054607E0FEF778FF401B022802D9032080
:103F2000FBE507E00548001F0068C0F3406000287B
:103F3000F0D101E00120F0E50020EEE50438024078
:103F40000000474210B504460CB9012010BD606A5C
:103F500000B900BFA06AB0F5005F00D100BF94F8BF
:103F6000510028B9002084F85000204600F03AF8AB
:103F7000022084F851002068006820F04000216889
:103F80000860D4E901010843E16808432169084356
:103F900061690843218B01F400710843E16908431A
:103FA000216A0843A16A0843216808600421A069C6
:103FB00001EA1040616A084321684860A06AB0F5D0
:103FC000005F02D12168E06A08612068C06920F4BE
:103FD00000602168C86100206065012084F85100FC
:103FE0000020B3E7704710B504460CB9012010BD9E
:103FF00094F8390028B9002084F83800204600F0F1
:104000000CF8022084F83900211D206800F060FBC4
:10401000012084F839000020E9E7704730B50446F4
:104020000D4601222946206800F0C4FB0C49206897
:10403000884203D00B492068884201D1012000E06A
:10404000002028B12068406C40F40040216848649A
:104050002068006840F0010021680860002030BD41
:10406000000001400004014008B50168096801F042
:10407000010119B10168496800911AE001680968F5
:10408000C1F3400119B101684968009111E001686C
:104090000968C1F3800119B101684968009108E01D
:1040A00001680968C1F3C00119B10168496800914C
:1040B00000BF08BD2DE9F047044620680568206868
:1040C000C668206847694FF00008C14605F00F0830
:1040D000B8F1000F0AD105F0200038B106F0200039
:1040E00020B1204600F09EFBBDE8F087B8F1000F3C
:1040F0006DD007F0010018B906F49070002866D062
:1041000005F0010030B106F4807018B1E06B40F0AA
:104110000100E06305F0040030B107F0010018B1C0
:10412000E06B40F00200E06305F0020030B107F000
:10413000010018B1E06B40F00400E06305F00800F6
:1041400030B107F0010018B1E06B40F00800E06307
:10415000E06B68B305F0200028B106F0200010B134
:10416000204600F05FFB20684069C0F38019E06BD7
:1041700000F0080010B9B9F1000F22D0204600F07D
:1041800031FB2068406900F04000B0B12068406910
:1041900020F0400021684861606B50B11748616BA6
:1041A0000865606BFEF71BFE10B1606B016D884700
:1041B0000CE02046FFF758FF08E02046FFF754FFC9
:1041C00004E02046FFF750FF0020E0638CE705F095
:1041D000800030B106F0800018B1204600F024FDC8
:1041E00082E705F0400030B106F0400018B12046EB
:1041F00000F008FB78E700BF76E70000D147000831
:1042000010B504460CB9012010BDA06900B100E052
:1042100000BF94F8390028B9002084F838002046FF
:1042200000F027F8242084F839002068C06820F4C2
:1042300000502168C860204600F042FB20680069F9
:1042400020F49040216808612068406920F02A002D
:10425000216848612068C06840F400502168C86047
:104260000020E063202084F8390084F83A00002020
:10427000CAE77047704701680968C1F3801119B136
:104280006FF0400102681160704700000249096840
:104290008143014A116070470C3C014002490968A2
:1042A0008143014A11607047083C01400249096896
:1042B0000143014A116070470C3C01400249096802
:1042C0000143014A11607047083C014030B5036862
:1042D00091FAA1F4B4FA84F465000324AC40A3433A
:1042E00091FAA1F4B4FA84F4640002FA04F42343CA
:1042F000036030BD10B543688B4301FB02F42343D8
:10430000436010BD30B5C36891FAA1F4B4FA84F4E7
:1043100065000324AC40A34391FAA1F4B4FA84F4F9
:10432000640002FA04F42343C36030BD10B50020DA
:1043300000F006F818B901E000BF00BFFCE710BDAF
:1043400010B5AAB0044600BF0020009031480068B4
:1043500040F080502F4908600846006800F0805007
:10436000009000BF00BF00BF002000902A480068F6
:1043700040F44040284908600846006800F4404086
:10438000009000BF00BF01201D9014B900041E90D2
:1043900002E04FF4A0201E900220239041051DA8AA
:1043A000C161082101624FF4B4714162022181624E
:1043B0000721C16202210163FFF77AFB10B10020DF
:1043C0002AB010BDFEF7D8FD08B10020F8E70C2098
:1043D0000790410108910821099148010190C0040A
:1043E000169001A8FEF71AFE0F20189002201990CF
:1043F00000201A904FF4A0501B904FF480501C9056
:10440000052118A8FFF77EF908B10020D8E70120A0
:10441000D6E70000403802400070004038B504463E
:104420000025082C71D2DFE804F00416283A4C5E0F
:1044300071834C4D00BF002000904B48006840F055
:104440000100494908600846006800F0010000903A
:1044500000BF00BF82E0454D00BF002000904248F1
:10446000006840F00200404908600846006800F01B
:104470000200009000BF00BF70E03D4D00BF002073
:1044800000903948006840F0040037490860084649
:10449000006800F00400009000BF00BF5EE0354DF2
:1044A00000BF002000903048006840F008002E490E
:1044B00008600846006800F00800009000BF00BFD8
:1044C0004CE02D4D00BF002000902748006840F0D0
:1044D0001000254908600846006800F010000090B0
:1044E00000BF00BF3AE0254D00BF002000901E48ED
:1044F000006840F020001C4908600846006800F091
:104500002000009000BF00BF28E023E01C4D00BF4A
:10451000002000901448006840F0400012490860F4
:104520000846006800F04000009000BF00BF15E0A2
:10453000144D00BF002000900B48006840F0800040
:10454000094908600846006800F08000009000BF3C
:1045500000BF03E00CA003F0EFFA00BF00BF284645
:1045600038BD000000000240303802400004024024
:1045700000080240000C02400010024000140240FB
:1045800000180240001C024050696E6D6170206589
:1045900072726F723A2077726F6E6720706F7274EA
:1045A000206E756D6265722E0000000070B50020EF
:1045B0000022022300240221274D2D6805F00C0063
:1045C00020B1042806D0082834D107E0234D244E1A
:1045D000356033E0234D224E35602FE01E4D2D1FF8
:1045E0002D68C5F380541C4D2D1F2D6805F03F012B
:1045F00054B11C4DB5FBF1F5174E361F3668C6F3A6
:10460000881605FB06F209E0144DB5FBF1F5124ED4
:10461000361F3668C6F3881605FB06F20E4D2D1FB1
:104620002D68C5F301456D1C6B00B2FBF3F50C4E14
:10463000356003E0094D0A4E356000BF00BF064DEE
:104640002D68C5F30315084E705D054D2D68C540F6
:10465000034E356070BD0000083802400024F400AD
:104660001402002000127A00A0A400081448006878
:1046700040F47000124908601248006840F00100E0
:104680001049086000200F49083108600D48006893
:104690000D4908400B4908600C48091D0860081FB7
:1046A000006820F48020091F0860002005490C31B3
:1046B00008604FF0006002498039086070470000D0
:1046C00088ED00E000380240FFFFF6FE10300024C5
:1046D000002202682C4B98420ED0B0F1804F0BD0D4
:1046E0002A4B984208D02A4B984205D0294B984231
:1046F00002D0294B984201D1012300E000231BB1D5
:1047000022F070024B681A431F4B984220D0B0F140
:10471000804F1DD01D4B98421AD01D4B984217D088
:104720001C4B984214D01C4B984211D01B4B984202
:104730000ED01B4B98420BD01A4B984208D01A4B04
:10474000984205D0194B984202D0194B984201D19A
:10475000012300E000231BB122F44072CB681A430E
:1047600002608B68C3620B688362074B984202D079
:10477000094B984201D1012300E000230BB10B69E2
:1047800003630123436170470000014000040040BF
:1047900000080040000C00400004014000400140BF
:1047A000004401400048014000180040001C004047
:1047B0000020004030B50023012404FA01F3046A0C
:1047C0009C430462046A02FA01F52C43046230BD82
:1047D00070B50546AC6B0020E085E0842046FFF70D
:1047E00043FC70BD0168C96821F490710268D16012
:1047F0000168496921F0010102685161202180F8B6
:104800003A10704710B504462068C06820F0400098
:104810002168C860202084F839002046FFF72BFD6E
:10482000002010BD70B5044694F83A00222844D107
:10483000A068B0F5805F13D1A56A206940B92068EF
:104840004068C0F308002880A06A801CA06219E0BC
:1048500020684068C0B22880A06A401CA06211E0B5
:10486000206938B920684068C1B2A26A501CA062B1
:10487000117007E02068406800F07F01A26A501CB8
:10488000A0621170E08D401E80B2E08598B920686A
:10489000C06820F490702168C8602068406920F0EA
:1048A000010021684861202084F83A002046FFF783
:1048B000E1FC002070BD0020FCE70220FAE70000C8
:1048C0002DE9F041044600252068056925F440558E
:1048D000E0680543206805612068C56849F20C60FE
:1048E00085432169A068084361690843E169084379
:1048F00005432068C5602068456925F44075A069B6
:10490000054320684561E069B0F5004F7ED1C44998
:104910002068884203D0C349206888425DD1FFF7F0
:1049200017F800EBC00101EB001061684900B0FB13
:10493000F1F06421B0FBF1F00601FFF709F800EB9C
:10494000C00101EB001061684900B0FBF1F7FEF710
:10495000FFFF00EBC00101EB001061684900B0FBF4
:10496000F1F06421B0FBF1F000EBC00101EB0010AD
:10497000A7EB8000322101EBC0006421B0FBF1F015
:1049800000F0F80006EB4006FEF7E2FF00EBC00186
:1049900001EB001061684900B0FBF1F7FEF7D8FFAA
:1049A00000EBC00101EB001061684900B0FBF1F0C1
:1049B0006421B0FBF1F000EBC00101EB0010A7EBAC
:1049C0008000322101EBC0006421B0FBF1F000F067
:1049D000070030442168886020E1FEF7A3FF00EB68
:1049E000C00101EB001061684900B0FBF1F06421E7
:1049F000B0FBF1F00601FEF795FF00EBC00101EB03
:104A0000001061684900B0FBF1F700E045E0FEF7F7
:104A100089FF00EBC00101EB001061684900B0FBA9
:104A2000F1F06421B0FBF1F000EBC00101EB0010EC
:104A3000A7EB8000322101EBC0006421B0FBF1F054
:104A400000F0F80006EB4006FEF76CFF00EBC0013B
:104A500001EB001061684900B0FBF1F7FEF762FF5F
:104A600000EBC00101EB001061684900B0FBF1F000
:104A70006421B0FBF1F000EBC00101EB0010A7EBEB
:104A80008000322101EBC0006421B0FBF1F000F0A6
:104A90000700304421688860C0E06149206888428E
:104AA00003D06049206888425CD1FEF751FF00EBDB
:104AB000C00101EB001061688900B0FBF1F6FEF760
:104AC00047FF00EBC00101EB001061688900B0FBFB
:104AD000F1F06421B0FBF1F000EBC00101EB00103C
:104AE000A6EB8000322101EB00106421B0FBF1F055
:104AF00000F0F006FEF72CFF00EBC00101EB001008
:104B000061688900B0FBF1F06421B0FBF1F006EBC5
:104B10000016FEF71DFF00EBC00101EB00106168FD
:104B20008900B0FBF1F7FEF713FF00EBC00101EBCA
:104B3000001061688900B0FBF1F06421B0FBF1F076
:104B400000EBC00101EB0010A7EB8000322101EB6C
:104B500000106421B0FBF1F000F00F003044216838
:104B600088605BE0FEF7DEFE00EBC00101EB0010A9
:104B700061688900B0FBF1F6FEF7D4FE00EBC001DE
:104B800001EB001061688900B0FBF1F06421B0FB1B
:104B9000F1F000EBC00101EB0010A6EB8000322128
:104BA00001EB00106421B0FBF1F000F0F006FEF71D
:104BB000B9FE00EBC00101EB001061688900B0FB99
:104BC000F1F06421B0FBF1F006EB0016FEF7AAFE4F
:104BD00000EBC00101EB001061688900B0FBF1F748
:104BE000FEF7A0FE00EBC00101EB00106168890038
:104BF000B0FBF1F06421B0FBF1F000EBC00101EB80
:104C00000010A7EB8000322101EB00106421B0FB03
:104C1000F1F000F00F00304421688860BDE8F081B9
:104C20000010014000140140014691F8390021288C
:104C30002CD18868B0F5805F0FD10A6A1088C0F364
:104C400008000B685860086918B9086A801C086277
:104C500009E0086A401C086205E00B6A581C0862FB
:104C600018780B685860C88C401E80B2C88458B948
:104C70000868C06820F080000B68D8600868C068C9
:104C800040F040000B68D860002070470220FCE72D
:104C900010B568E03B4801F051FBC4B21B2C06D0B4
:104CA0006D2C1ED0732C3AD07A2C5AD142E036A10A
:104CB000344801F0A6FB3B4800F023F93A4800F0E5
:104CC00020F93A4800F01DF9394800F01AF939483E
:104CD00000F017F9384800F014F90020374908604F
:104CE0003FE037A1274801F08CFB2E4800F048F93F
:104CF0002D4800F045F92D4800F042F92C4800F00D
:104D00003FF92C4800F03CF92B4800F039F9B6EE99
:104D1000000A04F0D9FD01202849086021E02FA1F4
:104D2000184801F06EFB002030490880012030490E
:104D3000086016E02FA1134801F063FB194800F04A
:104D40008BF9194800F088F9184800F085F91848DF
:104D500000F082F9174800F07FF9174800F07CF95D
:104D600000BF00BF00BF074CBC3C204600F04AFF1C
:104D700008B1012000E0002000288BD100F0D8FC11
:104D800010BD0000F80B00200A0D206578697469D9
:104D90006E67206D6F746F72206D6F6465200A0DF1
:104DA000000000001C0E00202C0E00203C0E0020F5
:104DB0004C0E00205C0E00206C0E002038020020FB
:104DC0000A0D20656E746572696E67206D6F746F71
:104DD00072206D6F6465200A0D0000000A0D2073BB
:104DE00074616E64696E67200A0D00002E02002057
:104DF000340200200A0D207A65726F696E67200AFE
:104E00000D00000010B50848006800B110BD032275
:104E10000221064803F042FE4FF41651034803F006
:104E20001FFE00BFF2E700000C020020680800200F
:104E30002DE9FF412DED048B0E9C9DF814509DF83B
:104E400016109DF8150041EA00269DF81700010193
:104E50009DF8180041EA20179DF819109DF81800D8
:104E600000F00F0041EA00281021F2EE090ABAEE24
:104E7000090A304600F06AF8B0EE408A0C21DFEDF6
:104E8000180A9FED180A384600F060F8F0EE408AE4
:104E90000C21F3EE020ABBEE020A404600F056F87F
:104EA000B0EE409A012D06D184ED008AC4ED018A4E
:104EB00084ED029A10E0022D06D184ED038AC4ED40
:104EC000048A84ED059A07E0032D05D184ED068A56
:104ED000C4ED078A84ED089ABDEC048BBDE8FF8120
:104EE00000008242000082C210B50246002300206A
:104EF00003E052F820406340401C8842F9D3184632
:104F000010BDFF210171FF2242718271C2710272D4
:104F100042728272FD22C2727047014671EE602AAF
:104F2000F0EE621AB0EE602A30EE423A012088407C
:104F3000401E02EE900AF8EEE22A63EE222A82EE8A
:104F4000A13AFDEEC32A12EE900A7047B0EE401A65
:104F500030EEC10AF0EE401AB0EE412A00EE100A1F
:104F6000B8EEC00A60EE212A01228A40521E00EEED
:104F7000102AB8EEC03A82EE830A30EE020A704779
:104F8000FF210171FF2242718271C271027242726D
:104F90008272FC22C272704701B52DED060B0146EC
:104FA0009DED000AB4EEE10AF1EE10FA1ADB9FED76
:104FB0001F0A81ED010A9FED1D0A81ED020A9FED96
:104FC0001C0A81ED030A91ED040ADDED000A71EE81
:104FD000E00A9FED181A01EE200A81ED040A012073
:104FE00007B000BD9DED000AB4EEC20AF1EE10FA62
:104FF00019D89FED0E0A81ED010A9FED0C0A81ED93
:10500000020A9FED0B0A81ED030A91ED040ADDED22
:10501000000A72EE600A9FED071A01EE200A81ED88
:10502000040A0120DCE70020DAE7000000000000AD
:10503000CDCCCC3E0000C84270B504460D46FBF70F
:105040007DF9614201600020024941F82500401EBF
:1050500070BD00006004002010B50446FF202071E0
:10506000FF216171A171E17121726172A172FE2152
:10507000E17200F05DFB10BDB0EE401AB4EEE01A34
:10508000F1EE10FA02DDB0EE410A7047B0EE600AB0
:10509000FBE7B0EE401AB4EEE01AF1EE10FA02D2DD
:1050A000B0EE410A7047B0EE600AFBE71CB520493C
:1050B000D1E90301CDE900011D480EC81D4800F0EB
:1050C000E3FB1D49D1E90301CDE900011A480EC8EF
:1050D0001A4800F0D9FB1648416A006ACDE9000180
:1050E000134814300EC8164800F0CEFB1248416A2F
:1050F000006ACDE90001104814300EC8114800F0D4
:10510000C3FB0B48816B406BCDE900010848283098
:105110000EC80D4800F0B8FB0748816B406BCDE925
:105120000001054828300EC8084800F0ADFB1CBD42
:10513000B40F00201C0E0020F00F00202C0E0020C9
:105140003C0E00204C0E00205C0E00206C0E002057
:1051500008B5FE4890F8780000F0010000284CD017
:10516000FB480068002848D10120F9490860F94847
:10517000FFF706FFF748C0680090F6480EC8F648EB
:1051800000F07BFFF548FFF7FBFEF448C068009095
:10519000F2480EC8F24800F070FFF248FFF7F0FE48
:1051A000F048C0680090EF480EC8EB4800F065FF7B
:1051B000ED48FFF7E5FEEC48C0680090EA480EC8ED
:1051C000E74800F05AFFE948FFF7DAFEE748C06811
:1051D0000090E6480EC8E04800F04FFFE448FFF7B3
:1051E000CFFEE348C0680090E1480EC8DC4800F0FC
:1051F00044FFE0A0FBF71CF908BDD44890F8780004
:1052000000F0010000284CD1D1480068012848D1A5
:105210000020CF490860CF48FFF773FECD48C06833
:105220000090CC480EC8CC4800F027FFCB48FFF7D1
:1052300068FECA48C0680090C8480EC8C84800F058
:105240001CFFCA48FFF75DFEC848C0680090C74809
:105250000EC8C14800F011FFC548FFF752FEC44810
:10526000C0680090C2480EC8BD4800F006FFBD48A7
:10527000FFF747FEBB48C0680090BA480EC8B64862
:1052800000F0FBFEB848FFF73CFEB748C06800904E
:10529000B5480EC8B24800F0F0FEB7A0FBF7C8F85A
:1052A000AAE7B64890ED000AB54880ED000AB34879
:1052B00090ED030AB24880ED020AB04890ED060A6C
:1052C000AF4880ED040AAD4890ED010AAC4880ED8E
:1052D000060AAA4890ED040AA94880ED080AA748E2
:1052E00090ED070AA64880ED0A0AA64890ED000A4C
:1052F000A34880ED010AA34890ED030AA04880ED81
:10530000030AA04890ED060A9D4880ED050A9D48D5
:1053100090ED010A9A4880ED070A9A4890ED040A38
:10532000974880ED090A974890ED070A944880ED68
:105330000B0A00BF00BF00BF934840680068924955
:105340000968084008B1012000E0002000BF00BF4C
:1053500098B93C218D48FBF757FB3C218C48FBF763
:1053600053FB4DF6AD6086490863014684484163AE
:105370000121884800F04AFB3CE10021854800F00B
:1053800045FB3C218148FBF73FFB3C218048FBF774
:105390003BFB6E4890ED000A7C4880ED000A6B48AC
:1053A00090ED060A794880ED010A684890ED0C0AF4
:1053B000764880ED020A654890ED120A734880ED48
:1053C000030A624890ED180A704880ED040A5F48AD
:1053D00090ED020A6D4880ED050A5C4890ED080AE0
:1053E0006A4880ED060A594890ED0E0A674880ED3C
:1053F000070A564890ED140A644880ED080A53489D
:1054000090ED1A0A614880ED090A504890ED040AAF
:105410005E4880ED0A0A4D4890ED0A0A5B4880ED2F
:105420000B0A4A4890ED100A584880ED0C0A47488C
:1054300090ED160A554880ED0D0A444890ED1C0A7F
:10544000524880ED0E0A414890ED010A504880ED27
:10545000000A3E4890ED070A4D4880ED010A3B489E
:1054600090ED0D0A4A4880ED020A384890ED130A83
:10547000474880ED030A354890ED190A444880ED0D
:10548000040A324890ED030A414880ED050A2F488E
:1054900090ED090A3E4880ED060A2C4890ED0F0A6F
:1054A0003B4880ED070A294890ED150A384880ED01
:1054B000080A264890ED1B0A354880ED090A234862
:1054C00090ED050A324880ED0A0A204890ED0B0A5B
:1054D0002F4880ED0B0A1D4890ED110A2C4880EDF5
:1054E0000C0A1A4890ED170A294880ED0D0A174852
:1054F00090ED1D0A264880ED0E0A00202049086321
:1055000000211F484163BFEE082AF7EE081A1F4822
:105510001A4991ED021AD1ED010A91ED000AFFF747
:105520003BFD1749096B084315490863B9EE042A86
:10553000F1EE041A15481430104991ED051AD1ED19
:10554000040A91ED030AFFF727FD25E094090020E6
:10555000380200201C0E0020140C00202C0E00200D
:10556000F80C00205C0E00206C0E00203C0E002089
:105570004C0E0020650A0D00780A0D006C0F00200B
:1055800058090020900F0020500F0020B40F002079
:10559000F00F0020200B00202049096B41EA400059
:1055A0001E490863BFEE082AF7EE081A1C481D4979
:1055B00091ED021AD1ED010A91ED000AFFF7ECFC22
:1055C0001649496B084315494863B9EE042AF1EEC0
:1055D000041A13481430134991ED051AD1ED040A49
:1055E00091ED030AFFF7D8FC0C49496B41EA4001F1
:1055F0000A4841630E210948FFF776FC0749886392
:10560000002006E0054931F81010074A22F8101072
:10561000401C1E28F6DB00BFEEE500005809002004
:10562000F00F0020900F00209C0A002070B52AA1E6
:105630002D4800F0E6FE2D48006840F480702B49AC
:1056400008600846006820F480700860002428483C
:1056500000882849C86015E02648806800F00100ED
:1056600080B12448C068244921F81400641C422CED
:1056700004DA1F4830F814001E49C8601FA11A48F8
:1056800000F0BFFE224800F05DFC0028E4D020219D
:105690001948FFF729FC0546002006E0164931F8B5
:1056A00010101C4A22F81010401C4228F6DB194842
:1056B000D0F88000A84203D04DF6AD611648416392
:1056C000FFF746FDFFF7F2FC00F032F813A10648A1
:1056D00000F097FE70BD00000A0D20696E20535047
:1056E000495F4953520A0D00F80B0020140802408C
:1056F0009C0A002000300140180A00200A0D2020DA
:105700005350495F495352207768696C650A0D0010
:10571000000F002094090020580900200A0D206580
:10572000786974205350495F4953520A0D000000B4
:1057300008B52448C068009022480EC8224800F0EE
:105740009CFC9FED220A04F0BFF82148C06800903D
:105750001F480EC81F4800F090FC9FED1C0A04F083
:10576000B3F81D48C06800901B480EC8164800F0EA
:1057700084FC9FED160A04F0A7F81848C068009052
:1057800016480EC8134800F078FC9FED100A04F08C
:105790009BF81348C068009011480EC80A4800F0F2
:1057A0006CFC9FED0A0A04F08FF80E48C068009068
:1057B0000C480EC8074800F060FC9FED040A04F096
:1057C00083F808BD1C0E0020140C0020ACC5A737C0
:1057D0002C0E0020F80C00203C0E00204C0E002067
:1057E0005C0E00206C0E002070B586B019A11E481A
:1057F00000F007FE9C2001F0C1F8041E09D004202F
:105800000523062207210090204601F065F8044692
:1058100000E00020054600221021284601F042F851
:105820001249284601F04DF8FF21284601F032F8D0
:105830000F4902A804F036F9064631460D4800F03B
:10584000FAFA02A804F04AF90BA1074800F0D9FDC2
:1058500006B070BD676F20746F2053504920496EA9
:105860006974200A0D000000F80B0020404B4C002A
:105870002D560008000F002053504920496E6974CE
:1058800020646F6E650A0D000FB42DE9F0472DED11
:10589000068B04469DED0F0AF0EE400ABAEE090AA7
:1058A000FFF7EAFBF0EE40AAF2EE090AFFF7F1FB80
:1058B000B0EE408A9DED100AF0EE400A9FED460AD8
:1058C000FFF7DAFBF0EE40AADFED440AFFF7E1FB59
:1058D000F0EE408A9DED110AF0EE400A9FED400A7D
:1058E000FFF7CAFBF0EE40AADFED3E0AFFF7D1FB5F
:1058F000B0EE409A9DED120AF0EE400A9FED380A94
:10590000FFF7BAFBF0EE40AAF1EE040AFFF7C1FB85
:10591000F0EE409A9DED130AF0EE400ABBEE020A4B
:10592000FFF7AAFBF0EE40AAF3EE020AFFF7B1FB85
:10593000B0EE40AA1020B2EE091AFAEE090AB0EE53
:10594000480AFFF7EAFA85B20C209FED241ADFED32
:10595000220AB0EE680AFFF7E0FA86B20C209FED4B
:10596000211ADFED1F0AB0EE490AFFF7D6FA87B217
:105970000C20B1EE041ADFED1A0AB0EE690AFFF747
:10598000CCFA1FFA80F80C20B3EE021AFBEE020AE2
:10599000B0EE4A0AFFF7C1FA1FFA80F92812207107
:1059A0006571C6F30711A1713007000E40EA272187
:1059B000E1712772C8F3071161724FEA0870000E97
:1059C00040EA2921A17284F80B90BDEC068BBDE85A
:1059D000F0075DF814FB0000000082C20000824264
:1059E000000000000000FA4300BF00BF00BF704786
:1059F0000021016041608160C160082101730021C4
:105A000081734173016041608160704730B50A461F
:105A100013461BB1856804682C6003E004882404E5
:105A2000C5682C6000BF00BF30BD70B5044620685B
:105A3000012200210369204698470546002D01DA1E
:105A4000284670BD2068022200210369204698473D
:105A500006462068002229460369204698473046BA
:105A6000EFE701460020704710B5044604F14C00F2
:105A700003F000F810BD70B505460C46214605F14F
:105A80004C0003F09FFA204670BD00002DE9F04164
:105A900005460E462F4607F1980101EB061004F06B
:105AA000C9F8B0B107F1980000EB0618444600BFF2
:105AB00000BF00BFE06828B940F20E22064907483F
:105AC00002F02AFD00BFE06801682046884700BF59
:105AD00000BFBDE8F081000047A8000842A8000808
